:0411B600D2A07F053F
:0811BA0000AE071FEE70F922E0
:0F11A700D2A11211B6C2A17F051211BAC2A022A5
:0C11C200C2A11211B6D2A17F050211BA21
:10000300C2A0A20792A17F051211BA1211B6C2A013
:07001300D2A17F050211BA22
:08114B001211A77FA012106F22
:101153001211B6A2A19207C2A07F051211BAA2076B
:011163002269
:02106F00AD07CB
:10107100E4FCECC39408748094805024C2A07F05E2
:101081001211BAED30E704D2A18002C2A17F05128C
:1010910011BAD2A0ED25E0FD7F051211BA0C80D264
:0210A100C2A0EB
:0110A300222A
:1010CC00E4FCECC394087480948050171211B6EDB4
:1010DC0025E0FD30A103430501C2A07F051211BA22
:0510EC000C80DFAF05E0
:0110F10022DC
:10113100AB05AA0712114BAF0212106F121153AF78
:0A1141000312106F1211530211C2C5
:0210A400AB0798
:1010A60012114BAF0312106F1211531211A77FA129
:1010B60012106F1211531210CCAD07D20712000393
:0510C6001211C2AF058C
:0110CB002202
:1010F200AB071211A77F9012106F1211537F40128B
:10110200106F121153AF0312106F1211530211C25A
:02103000C108F5
:10006600E4F522F523F52475265A75272875280602
:10007600F52CC205C2067580FFE5A0541F4480F525
:10008600A053A01FE4F580E5A0541F44A0F5A0539B
:10009600A01FE4FF1210A48F2BE4FF1210A48F2BD5
:1000A60012117D1211921211CE200003020568C2B0
:1000B60000120E6F8F24E524700302021224DB6007
:1000C600391460571470030201962460700302020B
:1000D6000024A36003020212C3E5229403748094F1
:1000E6008040047F008004E52204FF8F22EF640332
:1000F6006003020212F523020212E5226403600382
:10010600020212C3E52394027480948040047F00A7
:100116008004E52304FF8F23020212AF227E00EF44
:100126006403705FAD23FCED7019C3E52694787403
:1001360080948040047B0A8005E5262405FB8B26F7
:10014600020212ED64014C7019C3E527943C7480D9
:10015600948040047D0A8005E527240AFD8D270248
:100166000212E52364026003020212C3E528940C1E
:100176007480948040047D018004E52804FD8D2868
:10018600020212EF64024E6003020212B206807C83
:10019600AF227E00EF64037059AD23FCED7018D3D7
:1001A600E526940A7480948050047B788005E526C1
:1001B60024FBFB8B268055ED64014C7018D3E52794
:1001C600940A7480948050047D3C8005E52724F6CB
:1001D600FD8D278037E52364027031D3E52894012D
:1001E6007480948050047D0C8004E52814FD8D28CD
:1001F600801AEF4E7016B2058012E5226401700C6B
:10020600C2AFFDFF121131D2AFE4F52BE522147017
:10021600030203EF1470030204231470030204E2C2
:100226002403600302056875140B75150A2005037F
:10023600020324AE0EAF0FE4FCFD7B807A9679981C
:10024600F8D3120AF95018AE0EAF0FE4FCFDF812FF
:100256000FECE47B0AFAF9F8120FECAF0380027F89
:100266000A8F16AE0EAF0FE4FCFD7B407A42790F83
:10027600F8D3120AF95018AE0EAF0FE4FCFDF812CF
:100286000FECE47B0AFAF9F8120FECAF0380027F59
:100296000A8F17AE0EAF0FE4FCFD7BA07A867901BC
:1002A600F8D3120AF95018AE0EAF0FE4FCFDF8129F
:1002B6000FECE47B0AFAF9F8120FECAF0380027F29
:1002C6000A8F18C3E50F9410E50E94274016AE0E5C
:1002D600AF0F7C277D10120A967C007D0A120A96C3
:1002E600AF0580027F0A8F19C3E50F94E8E50E94E7
:1002F600034016AE0EAF0F7C037DE8120A967C0013
:100306007D0A120A96AF0580027F00EF240FF51AC8
:10031600AE0EAF0F7C007D64120A960204D6AE0EB6
:10032600AF0FE4FCFD7BA07A867901F8D3120AF9B7
:100336005018AE0EAF0FE4FCFDF8120FECE47B0A8A
:10034600FAF9F8120FECAF0380027F0A8F16C3E5A5
:100356000F9410E50E94274016AE0EAF0F7C277D46
:1003660010120A967C007D0A120A96AF0580027F5B
:100376000A8F17C3E50F94E8E50E94034016AE0EF8
:10038600AF0F7C037DE8120A967C007D0A120A965E
:10039600AF0580027F0A8F18C3E50F9464E50E94BB
:1003A600004016AE0EAF0F7C007D64120A967C00EC
:1003B6007D0A120A96AF0580027F0A8F19C3E50FE0
:1003C600940AE50E94004016AE0EAF0F7C007D0A2F
:1003D600120A967C007D0A120A96AF0580027F0AF1
:1003E6008F1AAE0EAF0F0204D675140C75150A756A
:1003F600160A75170A75180A75190AC3E525940AA7
:1004060074809480400EE52575F00A8475F00A84A0
:10041600AFF080027F0A8F1AE52502056175140D7B
:1004260075150A75160A75170A75180A300653C324
:10043600E52E9464E52D94004016AE2DAF2E7C007B
:100446007D64120A967C007D0A120A96AF05800228
:100456007F00EF240FF519C3E52E940AE52D9400CD
:100466004016AE2DAF2E7C007D0A120A967C007DCA
:100476000A120A96AF0580027F008F1AAE2DAF2EA4
:10048600804EC3E52E9464E52D94004016AE2DAF44
:100496002E7C007D64120A967C007D0A120A96AFB5
:1004A6000580027F0A8F19C3E52E940AE52D940074
:1004B6004016AE2DAF2E7C007D0A120A967C007D7A
:1004C6000A120A96AF0580027F0A8F1AAE2DAF2E4A
:1004D6007C007D0A120A968D1B02056875140EE5CE
:1004E6002304F51575160A75170A75180AAF237EC3
:1004F60000EF7031C3E526946474809480400EE565
:100506002675F0648475F00A84ADF080027D0A8D4C
:1005160019E52675F00A8475F00A84E5F0240FF5CE
:100526001AE5268036EF64014E701575190AE5271F
:1005360075F00A8475F00A8485F01AE4F51B8022AA
:10054600E5236402701C75190AE52875F00A84759E
:10055600F00A84E5F0240FF51AE52875F00A84857B
:10056600F01B200303020664C203C2AF1211A77F69
:100576009012106F1211537F0312106F121153D283
:10058600AF1211A77F9112106F1211531210CCD215
:10059600071200031211C27F107E001211121211EF
:1005A600A77F9012106F1211537F0312106F121152
:1005B60053C2AF1211A77F9112106F12115312106E
:1005C600CC8F25D2071200031211C2D2AFAC25E49C
:1005D6001209CFE4FBFA79A0784112081FE4FBFA6E
:1005E600794C7842120928120A038F25C3EF9463C7
:1005F600748094804003752563AF257E00D3EF9405
:10060600147480948050057529338039C3EF945053
:10061600EE6480948040057529FF8029AC25E4129C
:1006260009CFE4FBFA794C784212081FE4FBFA7909
:10063600707841120928E4FBFA798878C112072EEE
:10064600120A038F29C2AFAF291210F2D2AF7F1060
:100656007E00121112C2AFAF291210F2D2AF3004CF
:100666004BC20412001EAE2DAF2E7C007D0A120A6C
:1006760096D3EF9528EE94004014200213D202057B
:100686002BC2AFAD2BE4FF121131D2AF8002C202F2
:10069600AE0EAF0F7C007D64120A96D3EF9526EE60
:1006A60094004005751304800375130120010302AD
:1006B60000AFC201AF227E00EF6403600FAD22A837
:1006C600057401088002C333D8FC8018EF64034E1A
:1006D600701AE51F20E012AF23A8077401088002F4
:1006E600C333D8FCF4F52A8003752AFFE5136404A6
:1006F6007003532AF7E525D395274003532AEF3095
:100706000203532ADFC2AF852A80E5A0541F448026
:10071600F5A053A01FD2AF7F087E0012111202006F
:01072600AF23
:10111200EF1FAA0670011E4A60147C027D80D3ED87
:0E1122009400EC940040E9ED1D70F31C80F089
:01113000229C
:100D3800C2AFE4FFEFC39408748094804003020EAE
:100D480069D29000000000000000000000000000D0
:100D5800000000000000000000000000000000008B
:100D6800000000000000000000000000000000007B
:100D7800000000000000000000000000000000006B
:100D8800000000000000000000000000000000005B
:100D9800000000000000000000000000000000004B
:100DA800000000000000000000000000000000003B
:100DB800000000000000000000000000000000002B
:100DC800000000000000000000000000000000001B
:100DD800000000000000C2900000000000000000B9
:100DE80000000000000000000000000000000000FB
:100DF80000000000000000000000000000000000EB
:100E080000000000000000000000000000000000DA
:100E180000000000000000000000000000000000CA
:100E280000000000000000000000000000000000BA
:100E380000000000000000000000000000000000AA
:100E4800000000000000000000000000000000009A
:100E5800000000000000000000000000000F020D6C
:060E68003C438E10D2AFE6
:010E6E002261
:0C11CE00538EFBE4F5D7F5D643AF0422A6
:10001E00E4F5D7F5D6120D383091033008FA538E29
:10002E00EF300809C208752D03752EE722AFD6EF03
:10003E00FEADD77C00E42DFFEC3EFEAD07FCE412D6
:10004E0009CA7B967A43798B783C12081F120A03F1
:04005E008E2D8F2E26
:01006200227B
:030063000211DAAD
:0611DA00200802D20832D9
:10116400C0F9A4B0999282F88090FF8E89888C404F
:09117400792430191202780010F0
:1010320002100000021C0000021E0000C100C103D9
:10104200C104C101C102011300020E00000112001D
:10105200010DFF08140A0B0C0D0E0F1011010800F0
:0C106200010900010A00010B00010C064E
:03001B00020BDDF8
:100BDD00C0E0C0F0C083C082C0D075D000C000C0DE
:100BED0001C002C003C004C005C006C0070511E561
:100BFD001170020510D39410E5109427400675105E
:100C0D000075110030020543121080035312EFAE30
:100C1D0010AF117C007D05120A96ED4C6003020C9D
:100C2D00EE5312DF051DE51D7002051CAE1CFFE421
:100C3D00FCFD7B607AEAF9F8D3120AF95006751CAF
:100C4D0000751D00AE1CAF1D7C037DE8120A96EDEC
:100C5D004C7004D28C802CED64644C7026C28CAF29
:100C6D008CEFFEAD8A7C00E42DF50FEC3EF50EFE0B
:100C7D00AF0F7D0A120A848E0E8F0F758A00758C48
:100C8D0000C28DAE1CAF1D7C007D0A120A96ED4C84
:100C9D00704AD200AE1CAF1DFC7D32120A96ED4C8F
:100CAD00703AD201AE1CAF1DFC7D64120A96ED4C5C
:100CBD00702A051FE51F7002051EAE1CAF1D7C01BD
:100CCD007D2C120A96ED4C7002D203AE1CAF1D7C2A
:100CDD00017DF4120A96ED4C7002D204120F97802A
:100CED0018AE10AF117C007D05120A967E00EDB591
:100CFD001307EEB50403431220E50D65126011854F
:100D0D001280E5A0541F44A0F5A053A01F85120D1D
:100D1D00D007D006D005D004D003D002D001D0002A
:0B0D2D00D0D0D082D083D0F0D0E032D4
:10117D00438E805389F0438904E4F58AF58CC28D42
:05118D00C28CC2A92282
:10119200438E4053890F758BA0758DF6C28FD28E08
:0511A200D2ABD2AF2228
:100F97007580FFE5A0541F44E0F5A053A01FAF08DC
:100FA700A8077401088002C333D8FCF580E5A05474
:100FB7001F44C0F5A053A01F74142508F8E690112C
:100FC7006493F580E5A0541F44E0F5A053A01FC328
:100FD700E50894077480948040047F008004E50846
:040FE70004FF8F086C
:010FEB0022E3
:100E6F0043B00FE5B0540FFE640F600FC3E5099454
:100E7F00DC74809480500705098003E4F509E50AC6
:100E8F007033C3E5099405748094804028750A0176
:100E9F00750CC8EE24F9601A24FC601124FE60085A
:100EAF00147012750B07800D750B068008750B05F6
:100EBF008003750B04E50A6401703EEE640F601F3A
:100ECF00E50964057006E50B4420FF22E509C3958B
:100EDF000C4009E50B4440FF750CFF22E4FF22E4B0
:100EEF00F50AF509E50CF47007E50B44C0FF800522
:0B0EFF00E50B4480FFE4F50B22E4FF4C
:010F0A0022C4
:10072700020A6FE86480F8E933E83360110460F087
:10073700ED33EC337009E8FCE9FDEAFEEBFF220438
:1007470060DED3EB9FEA9EE99DE8C2E78CF0C2F733
:1007570095F0400CE8CCF8E9CDF9EACEFAEBCFFBFF
:10076700120A3A85D0F05804700320D5B3E8047014
:10077700075002B2D5020A7992D5EC0460F7E4CCAF
:10078700C0E0C398F8603B94186008400DD0E0FBC8
:10079700020A51E4FBFAC9FC8028E830E406E4C900
:1007A700FBE4CAFCE830E305E4C9CACBFCE854071C
:1007B7006010F8C3E913F9EA13FAEB13FBEC13FC27
:1007C700D8F130F52FC3E49CFCEF9BFFEE9AFEEDCA
:1007D70099FDD0E0FBEF4E4D4C701222DB03020A6D
:1007E70076EC2CFCEF33FFEE33FEED33FDED30E717
:1007F700EB020A51EF2BFFEE3AFEED39FDD0E0FB9D
:1008070050130BBB0003020A79ED13FDEE13FEEF45
:0808170013FFEC13FC020A516F
:10081F00EC4D6011E8497017ED33EC3304600DE4D3
:10082F00FCFFFEFD22E933E8330470F8020A6F1271
:10083F000A3A58046009E4CC248150062850090272
:10084F000A79284003020A76C0E0EB4A7044B98067
:10085F0006D0E0FB020A65EF4E701CBD8008EBFF6F
:10086F00EAFEE9FD80EBE98DF0A4FEE5F002090850
:10087F00E9CDF9EAFEEBFFEF89F0A4FCE5F0CE89B4
:10088F00F0A42EFFE435F0CD89F0A42DFEE435F071
:10089F008067EF4E7005BD80D780C3EF8BF0A4AC9F
:1008AF00F0EE8BF0A42CFCE435F0F8EF8AF0A42CDA
:1008BF00E5F038FCE433CB8DF0A42CFCE5F03BF8ED
:1008CF00EE8AF0A42CFCE5F038F8E433CF89F0A4DD
:1008DF002CFCE5F038CF3400CE89F0A42FFFE5F0E3
:1008EF003EFEE433C98DF0A42EFEE5F039CD8AF03B
:1008FF00A42FFFE5F03EFEE43DFD33D0E0FB5007B3
:10090F000BBB000F020A79EC2CFCEF33FFEE33FE2A
:06091F00ED33FD020A5158
:10092500020A79EC5D046005E859047003020A6F58
:10093500120A3A580460F6EC4860F2EC7004FDFEC9
:10094500FF22C860DB2481C85009C39860025006A5
:10095500020A769850CAF582E9294B4A7005AB829E
:10096500020A6575F0007C1A7880C3EF9BEE9AED5C
:1009750099400DC3EF9BFFEE9AFEED99FDE842F01D
:10098500DC23ACF0D0E0FFD0E0FED0E0FDAB822070
:10099500E7101BEB60BAEC2CFCEF33FFEE33FEEDFA
:1009A50033FD020A51E803F830E705C0F075F000A1
:1009B500EF2FFFEE33FEED33FD40B830E7C280AADE
:1009C50075F020800E75F010800575F0087D007EAD
:1009D500007F003392D530D503120AEBEC3340107B
:1009E500EF33FFEE33FEED33FDEC33FCD5F0ED22B6
:0E09F500E5F0247EA2D513CC92E7CDCEFF22F2
:100A0300EDD2E7CD33EC3392D524814006E4FFFEEB
:100A1300FDFC22FCE4CFCECDCC24E0501174FF804A
:100A2300EDC3CC13CCCD13CDCE13CECF13CF0470E7
:070A3300F030D5DE020AEBF2
:100A3A00E9D2E7C933E833F892D5EDD2E7CD33EC02
:070A4A0033FC5002B2D5227B
:100A5100EC30E7100FBF000C0EBE00080DBD000406
:100A61000BEB6014A2D5EB13FCED92E7FD2274FFB2
:100A7100FCFDFEFF22E480F8A2D574FF13FC7D800B
:030A8100E480EF1F
:03000000020F0BE1
:0C0F0B00787FE4F6D8FD75812E020F52AD
:100A8400EF8DF0A4A8F0CF8CF0A428CE8DF0A42E86
:020A9400FE2240
:100A9600BC000BBE0029EF8DF084FFADF022E4CC44
:100AA600F875F008EF2FFFEE33FEEC33FCEE9DEC0D
:100AB600984005FCEE9DFE0FD5F0E9E4CEFD22ED53
:100AC600F8F5F0EE8420D21CFEADF075F008EF2F9D
:100AD600FFED33FD4007985006D5F0F222C398FD8E
:050AE6000FD5F0EA222B
:100FEC00C2D5E830E70FB2D5E4C39BFBE49AFAE430
:100FFC0099F9E498F8EC30E717B2D5121022120BDD
:10100C004BE4C39BFBE49AFAE499F9E498F8800367
:10101C00120B4B30D50DE4C39FFFE49EFEE49DFD07
:04102C00E49CFC2222
:0E0AEB00C3E49FFFE49EFEE49DFDE49CFC221C
:100AF900EB9FF5F0EA9E42F0E99D42F0EC6480C874
:060B090064809845F02213
:100F1700020066E493A3F8E493A34003F68001F28A
:100F270008DFF48029E493A3F85407240CC8C333DB
:100F3700C4540F4420C8834004F456800146F6DFAA
:100F4700E4800B0102040810204080901030E47EFA
:100F5700019360BCA3FF543F30E509541FFEE4939F
:100F6700A360010ECF54C025E060A840B8E493A366
:100F7700FAE493A3F8E493A3C8C582C8CAC583CA91
:100F8700F0A3C8C582C8CAC583CADFE9DEE780BE49
:01106E000081
:100B0F0075F008758200EF2FFFEE33FECD33CDCC9D
:100B1F0033CCC58233C5829BED9AEC99E582984020
:100B2F000CF582EE9BFEED9AFDEC99FC0FD5F0D6FD
:100B3F00E4CEFBE4CDFAE4CCF9A88222B800C1B927
:100B4F000059BA002DEC8BF084CFCECDFCE5F0CB65
:100B5F00F97818EF2FFFEE33FEED33FDEC33FCEB9E
:100B6F0033FB10D703994004EB99FB0FD8E5E4F959
:100B7F00FA227818EF2FFFEE33FEED33FDEC33FC46
:100B8F00C933C910D7059BE99A4007EC9BFCE99A3A
:100B9F00F90FD8E0E4C9FAE4CCFB2275F010EF2F7F
:100BAF00FFEE33FEED33FDCC33CCC833C810D7077F
:100BBF009BEC9AE899400AED9BFDEC9AFCE899F8BA
:0E0BCF000FD5F0DAE4CDFBE4CCFAE4C8F9224D
:00000001FF
